:100000000C942A000C94D0020C943C000C943C00FC
:100010000C943C000C943C000C943C000C943C0070
:100020000C943C000C943C000C943C000C944A034F
:100030000C943C000C943C000C943C000C943C0050
:100040000C943C000C943C000C943C000C943C0040
:100050000C943C0011241FBECFE5D8E0DEBFCDBF1D
:1000600020E0A0E6B0E001C01D92A336B207E1F7A0
:100070000E94D1010C9454050C94000062E084E0CD
:100080000E944B010E944F0161E080E00E94DF026C
:10009000D5E010E0C1E073C0C130B1F4111114C05B
:1000A000DD2351F060E081E00E94590188EE93E089
:1000B0000E945903D15063C060E081E00E94680152
:1000C000D5E011E0C0E05BC0C11116C01130A1F451
:1000D000DD2351F061E081E00E94590161E081E09F
:1000E0000E947701D1504BC061E081E00E9468011D
:1000F000D5E012E0C1E043C0C130B1F41230A1F448
:10010000DD2351F062E081E00E94590188EE93E026
:100110000E945903D15033C062E081E00E9468011F
:10012000D5E011E0C2E02BC0C230B1F41130A1F42F
:10013000DD2351F061E081E00E94590161E081E03E
:100140000E947701D1501BC061E081E00E946801EC
:10015000D5E010E0C1E013C0DD2351F060E081E0A4
:100160000E94590188EE93E00E945903D15007C0C4
:1001700060E081E00E946801D5E011E0C0E00E94EB
:100180003B03882309F488CF80C0C130D1F411111A
:1001900018C060E081E00E94590167E081E00E94A0
:1001A000590180E00E94290388E893E10E945903E5
:1001B00060E081E00E94680167E081E00E946801E0
:1001C0004EC0C11116C01130A1F480E00E94290375
:1001D00026E041E061E081E00E94980161E081E079
:1001E0000E94680166E081E00E94680112E0C1E0BF
:1001F0004CC0C130E1F41230D1F462E081E00E94E1
:10020000590165E081E00E94590180E00E942903C4
:1002100088E893E10E94590362E081E00E9468014E
:1002200065E081E00E94680111E0C2E02EC0C230AA
:10023000B1F41130A1F480E00E94290326E041E0EE
:1002400061E081E00E94980161E081E00E94680124
:1002500066E081E00E94680110E0C1E016C084EF12
:1002600091E00E9459030E94470380E00E94170317
:1002700065E081E00E94680166E081E00E9468011B
:1002800067E081E00E94680103CF0E943B03813058
:1002900009F47BCFFDCE40E00E94D601089561E0D5
:1002A00081E00E94A80241E067E084E00E94D6015C
:1002B0000895CF93DF93C82FD62F41E00E94D60137
:1002C00041E06D2F8C2F0E944702DF91CF9108955E
:1002D000CF93DF93C82FD62F41E00E94D60140E094
:1002E0006D2F8C2F0E944702DF91CF9108951F93AD
:1002F000CF93DF93182FD62FC2E014C0C0FD09C0E2
:100300006D2F812F0E94590184EF91E00E945903C3
:1003100008C06D2F812F0E94680184EF91E00E9438
:100320005903C150C111EACFDF91CF911F910895B8
:10033000FF920F931F93CF93DF93F82E062F142F66
:10034000D22F41E066E081E00E94D60141E061E009
:1003500081E00E94D601CAE01CC0C0FD0DC0602F24
:100360008F2D0E9459016D2F812F0E94590184EF1A
:1003700091E00E9459030CC0602F8F2D0E946801EC
:100380006D2F812F0E94680184EF91E00E94590334
:10039000C150C111E2CFDF91CF911F910F91FF901A
:1003A00008950E943E0080E090E00895823019F1A7
:1003B00018F4813039F069C08330B1F1843009F428
:1003C0004CC063C0413059F42AB381E090E002C0D0
:1003D000880F991F6A95E2F7822B8ABB56C02AB311
:1003E00081E090E002C0880F991F6A95E2F780953E
:1003F00082238ABB4AC0413059F427B381E090E0A0
:1004000002C0880F991F6A95E2F7822B87BB3DC017
:1004100027B381E090E002C0880F991F6A95E2F748
:100420008095822387BB31C0413059F424B381E0E9
:1004300090E002C0880F991F6A95E2F7822B84BB77
:1004400024C024B381E090E002C0880F991F6A9510
:10045000E2F78095822384BB18C0413059F421B360
:1004600081E090E002C0880F991F6A95E2F7822B25
:1004700081BB0BC021B381E090E002C0880F991FBF
:100480006A95E2F78095822381BB80E008958230EF
:10049000F9F018F4813039F059C0833071F18430AB
:1004A00009F440C053C02AB381E090E002C0880F35
:1004B000991F6A95E2F7282B2ABB442321F09BB3AE
:1004C000892B8BBB43C09BB3809589238BBB3EC0DC
:1004D00027B381E090E002C0880F991F6A95E2F788
:1004E000282B27BB442321F098B3892B88BB2EC02F
:1004F00098B38095892388BB29C024B381E090E01C
:1005000002C0880F991F6A95E2F7282B24BB442369
:1005100021F095B3892B85BB19C095B380958923AC
:1005200085BB14C021B381E090E002C0880F991F01
:100530006A95E2F7282B21BB442321F092B3892B43
:1005400082BB04C092B38095892382BB80E008956A
:10055000823081F018F4813031F020C0833089F08E
:100560008430B1F01BC0613011F48FEF01C080E026
:100570008ABB14C0613011F48FEF01C080E087BBEB
:100580000DC0613011F48FEF01C080E084BB06C064
:10059000613011F48FEF01C080E081BB80E00895ED
:1005A0001F920F920FB60F9211248F9381E08093C8
:1005B00061008F910F900FBE0F901F901895CF93F1
:1005C000C62F813091F018F0823009F12BC040E045
:1005D00062E084E00E94D601C13019F085B78260E4
:1005E00085BF8BB780648BBF1DC040E063E084E0B3
:1005F0000E94D601C13021F485B7846085BF03C055
:1006000085B7886085BF8BB780688BBF0BC040E023
:1006100062E082E00E94D60184B7806484BF8BB719
:1006200080628BBF8FB780688FBFCF910895813074
:1006300041F018F0823049F008958BB780648BBF89
:1006400008958BB780648BBF08958BB780648BBF90
:100650000895813041F018F0823049F008958BB749
:100660008F7B8BBF08958BB78F7B8BBF08958BB724
:100670008F7B8BBF089580916100882329F081E0F2
:100680008093600010926100809160000895109244
:10069000600008951F920F920FB60F9211248F934E
:1006A00081E0809362008F910F900FBE0F901F909A
:1006B00018958330910570F522E023BF48EE53E092
:1006C000849F9001859F300D949F300D1124C901A6
:1006D0009695879596958795969587958CBF8FB7B4
:1006E00080688FBF89B7826089BF88B7827088BFF2
:1006F0008823D9F388B78D7F88BF89B78D7F89BF5D
:1007000083B78E7F83BF83B78D7F83BF83B78B7F94
:1007100083BF9EC09C01235031092E30310588F5DE
:1007200023E023BF48EE53E0849F9001859F300D66
:10073000949F300D1124C9010024880F991F001CBB
:10074000880F991F001C892F902D8CBF8FB7806850
:100750008FBF89B7826089BF88B7827088BF8823BE
:10076000D9F388B78D7F88BF89B78D7F89BF83B75D
:100770008E7F83BF83B78D7F83BF83B78B7F83BF1C
:1007800067C09C01215131092133310538F524E03E
:1007900023BF48EE53E0849F9001859F300D949FC6
:1007A000300D11243CBF8FB780688FBF89B782603E
:1007B00089BF88B7827088BF8823D9F388B78D7FB7
:1007C00088BF89B78D7F89BF83B78E7F83BF83B78B
:1007D0008D7F83BF83B78B7F83BF3AC0BC0183B754
:1007E000816083BF83B7846083BF80E090E00E9414
:1007F000590420E030E04AE754E40E94E70420E096
:1008000030E040E85AE30E94E70420E030E040E8AE
:100810005BE30E94E7040E942A048FB780688FBFC1
:1008200089B7816089BF08C0809162008823E1F3A5
:10083000109262006150710961157105A9F783B7C3
:100840008E7F83BF83B78D7F83BF83B78B7F83BF4B
:1008500080E008950E94C60488F09F5798F0B92F51
:100860009927B751B0F0E1F0660F771F881F991FE5
:100870001AF0BA95C9F714C0B13091F00E94E004A3
:10088000B1E008950C94E004672F782F8827B85FB3
:1008900039F0B93FCCF3869577956795B395D9F73D
:1008A0003EF490958095709561957F4F8F4F9F4F47
:1008B0000895E89409C097FB3EF490958095709553
:1008C00061957F4F8F4F9F4F9923A9F0F92F96E99C
:1008D000BB279395F695879577956795B795F11111
:1008E000F8CFFAF4BB0F11F460FF1BC06F5F7F4FAE
:1008F0008F4F9F4F16C0882311F096E911C07723C0
:1009000021F09EE8872F762F05C0662371F096E8C8
:10091000862F70E060E02AF09A95660F771F881F97
:10092000DAF7880F9695879597F9089597F99F6755
:1009300080E870E060E008959FEF80EC0895002467
:100940000A941616170618060906089500240A9434
:1009500012161306140605060895092E0394000CBA
:1009600011F4882352F0BB0F40F4BF2B11F460FF49
:1009700004C06F5F7F4F8F4F9F4F089557FD905872
:10098000440F551F59F05F3F71F04795880F97FB53
:10099000991F61F09F3F79F087950895121613060D
:1009A0001406551FF2CF4695F1DF08C0161617063C
:1009B0001806991FF1CF8695710561050894089571
:1009C000E894BB2766277727CB0197F908950E9403
:1009D000FA040C94AD040E949F0438F00E94A6040F
:1009E00020F0952311F00C9496040C949C0411248F
:1009F0000C94E1040E94BE0470F3959FC1F3950F1F
:100A000050E0551F629FF001729FBB27F00DB11D92
:100A1000639FAA27F00DB11DAA1F649F6627B00D22
:100A2000A11D661F829F2227B00DA11D621F739F0B
:100A3000B00DA11D621F839FA00D611D221F749F19
:100A40003327A00D611D231F849F600D211D822F60
:100A5000762F6A2F11249F5750409AF0F1F0882387
:100A60004AF0EE0FFF1FBB1F661F771F881F9150B4
:100A70005040A9F79E3F510580F00C9496040C94C9
:100A8000E1045F3FE4F3983ED4F38695779567954C
:100A9000B795F795E7959F5FC1F7FE2B880F911DDE
:0C0AA0009695879597F90895F894FFCF7C
:00000001FF
